:100000000C9437000C94C2000C94D4010C94D401CD
:100010000C94D4010C9431010C94D4010C94D401AF
:100020000C94D4010C94D4010C94D4010C94610070
:100030000C94D4010C94D4010C94D4010C94D401EC
:100040000C94D4010C94D4010C94D4010C94D401DC
:100050000C94D4010C94D4010C94D4010C94D401CC
:100060000C94D4010C94D4010100010D80001124E2
:100070001FBECFEFD8E0DEBFCDBFE8E6F0E040E046
:1000800017C0B591A59135912591059107FD0CC03B
:1000900095918591EF01F92FE82F05900D92A21708
:1000A000B307D9F7FE0104C01D92A217B307E1F709
:1000B000ED36F40731F70E94D1010C945F00F894FB
:0200C000FFCF70
:1000C2001F920F920FB60F9211242F933F934F93CB
:1000D2005F936F937F938F939F93AF93BF93EF93AE
:1000E200FF9380910001813079F40E946801882396
:1000F20021F08091060185B933C0E0E0F1E082E0B1
:10010200808381E080872CC0823041F50E94C90142
:10011200882321F059980E948C0122C0809102010B
:10012200811115C058982FEF83ED90E32150804044
:100132009040E1F700C00000589A2FEF83ED90E362
:10014200215080409040E1F700C00000EBCF815089
:10015200809302010E94BF01589802C00E94BF0111
:10016200FF91EF91BF91AF919F918F917F916F918D
:100172005F914F913F912F910F900FBE0F901F9063
:020182001895CE
:100184001F920F920FB60F9211242F933F934F9308
:100194005F936F937F938F939F93AF93BF93EF93EB
:1001A400FF930E945501811108C0E0E0F1E016823E
:1001B40081E08083599A589A0AC0813021F482E000
:1001C4008093000104C0823011F4109200012FEFDB
:1001D40083EC99E0215080409040E1F700C000009A
:1001E400FF91EF91BF91AF919F918F917F916F910B
:1001F4005F914F913F912F910F900FBE0F901F90E1
:0202040018954B
:100206008BE08AB987EF8BB98FEF84B915B887B1C0
:100216008F6087B987B1806387B988B188B988B19B
:1002260088B9E9E6F0E080818083E89A84E08093EB
:10023600680080EF80936D000E949A017894E0E058
:10024600F1E088E08483138614868AE0858310862D
:0C0256001186168287830E947A010895A9
:100262001F920F920FB60F9211242F933F934F9329
:100272005F936F937F938F939F93AF93BF93EF930C
:10028200FF930E947A01FF91EF91BF91AF919F91ED
:100292008F917F916F915F914F913F912F910F902D
:0802A2000FBE0F901F9018958C
:1002AA0080910901813069F480910801823021F03E
:1002BA008F5F8093080102C01092080180910801A3
:0602CA00089584E0089590
:1002D000E0E0F1E02681422F50E0878190E0019735
:1002E000481759072CF42F5F2093060181E00895E9
:0402F00080E008950D
:1002F4000E94A701E0E0F1E0848592EF899F802DC0
:1003040011249581891B875E8283138211820E9446
:04031400BF01089588
:10031800E0E0F1E083818F5F83839581891304C0D6
:0C03280081E080930101089580E00895B9
:10033400109280008DE08093810082E080936F00B2
:0A03440080E293E00E94B4010895E6
:10034E0089B1823020F0982F9B7F933011F48093E7
:0A035E000B0189B180930C01089592
:10036800E9E8F0E02081922B9083E8E8F0E09081C2
:06037800892B808308952B
:10037E00E0E0F1E0108282E0808781E081871682E2
:04038E0015B8089501
:10039200E0E0F1E081E026819481291380E0089574
:0603A2000E940301FFCFE1
:0403A8000C940000B1
:00000001FF
