:100000000C9437000C94A6000C9496010C94960165
:100010000C9496010C94E5000C9496010C949601B6
:100020000C9496010C9496010C9496010C9461002A
:100030000C9496010C9496010C9496010C949601E4
:100040000C9496010C9496010C9496010C949601D4
:100050000C9496010C9496010C9496010C949601C4
:100060000C9496010C9496010100010C800011245F
:100070001FBECFEFD8E0DEBFCDBFE8E6F0E040E046
:1000800017C0B591A59135912591059107FD0CC03B
:1000900095918591EF01F92FE82F05900D92A21708
:1000A000B307D9F7FE0104C01D92A217B307E1F709
:1000B000ED36F40731F70E9493010C945F00F89439
:0200C000FFCF70
:1000C2001F920F920FB60F9211242F933F934F93CB
:1000D2005F936F937F938F939F93AF93BF93EF93AE
:1000E200FF9380910001813079F40E9453018823AB
:1000F20021F08091050185B917C0E0E0F1E082E0CE
:10010200808381E0878310C0823061F40E948B017A
:10011200882321F059980E94650106C058981092D0
:10012200030102C00E942B01FF91EF91BF91AF9199
:100132009F918F917F916F915F914F913F912F91FD
:0A0142000F900FBE0F901F9018954C
:10014C001F920F920FB60F9211242F933F934F9340
:10015C005F936F937F938F939F93AF93BF93EF9323
:10016C00FF930E944001811106C0E0E0F1E015828E
:10017C0081E080830AC0813021F482E08093000109
:10018C0004C0823011F4109200012FEF82E597E049
:10019C00215080409040E1F700C00000FF91EF91AA
:1001AC00BF91AF919F918F917F916F915F914F9183
:0E01BC003F912F910F900FBE0F901F9018953E
:1001CA001F920F920FB60F9211248F939F93EF9362
:1001DA00FF9389B1833031F018F4823018F004C0EB
:1001EA00873011F480930A0189B1E0E0F1E0838756
:1001FA009285892B8583FF91EF919F918F910F9023
:08020A000FBE0F901F90189524
:100212008BE08AB987EF8BB98FEF84B915B887B1B4
:100222008F6087B987B1806387B988B188B988B18F
:1002320088B9E9E6F0E080818083E89A84E08093DF
:10024200680080EF80936D000E94730178940E9491
:040252002B010895DF
:10025600E0E0F1E010828AE08283138298E09483E2
:100266001286138692E0978391E0908786831582A3
:0A027600118215B8599A589A08959C
:1002800080910801813069F480910701823021F06A
:100290008F5F8093070102C01092070180910701D0
:0602A000089584E00895BA
:1002A600E0E0F1E02581422F50E0868190E0019761
:1002B600481759072CF42F5F2093050181E0089514
:0402C60080E0089537
:1002CA00E0E0F1E083818F5F83839281891304C028
:0C02DA0081E080930101089580E0089508
:1002E600109280008DE08093810082E080936F0001
:0A02F60080E293E00E948001089569
:10030000E9E8F0E02081922B9083E8E8F0E090812A
:06031000892B8083089593
:10031600E0E0F1E081E025819481291380E00895F1
:060326000E940901FFCF57
:04032C000C9400002D
:00000001FF
