:100000000C943A000C9464000C94DE000C94DE0016
:100010000C94DE000C94DE000C94DE000C94DE00E8
:100020000C94DE000C94DE000C94DE000C948A002C
:100030000C94DE000C94DE000C94DE000C94DE00C8
:100040000C94DE000C94DE000C94DE000C94DE00B8
:100050000C94DE000C94DE000C94DE000C94DE00A8
:100060000C94DE000C94DE00010001010001C001CF
:100070000101028011241FBECFEFD8E0DEBFCDBF4B
:10008000E8E6F0E040E017C0B591A59135912591E3
:10009000059107FD0CC095918591EF01F92FE82F8F
:1000A00005900D92A217B307D9F7FE0104C01D9267
:1000B000A217B307E1F7E437F40731F70E94DB003A
:0800C0000C946200F894FFCFDC
:1000C8001F920F920FB60F9211242F938F939F9325
:1000D80080910001863421F484E58093000105C0F5
:1000E80086E480930001109201012FEF85EA9EE0DB
:1000F800215080409040E1F700C000009F918F910F
:0C0108002F910F900FBE0F901F901895C4
:100114001F920F920FB60F9211248F939F93809189
:100124000001843569F4809101018A3010F0109245
:1001340001018091010191E0980F9093010185B92B
:0E0144009F918F910F900FBE0F901F901895F6
:100152008BE08AB984EF8BB98FEF84B915B887B178
:100162008F6087B987B1806387B988B188B988B150
:1001720088B9E9E6F0E080818083E89A0E94C300B2
:0401820078940895D0
:10018600109280008DE08093810082E080936F0062
:0A01960080E293E00E94D00008957B
:1001A000E9E8F0E02081922B9083E8E8F0E090818C
:0601B000892B80830895F5
:0601B6000E94A900FFCF2A
:0401BC000C9400009F
:0101C00046F8
:00000001FF
