:100000000C943A000C94E8010C9414040C9414041D
:100010000C9414040C94E3020C9414040C94140433
:100020000C9414040C9414040C9414040C94A60062
:100030000C9414040C9414040C9414040C941404E0
:100040000C9414040C9414040C9414040C941404D0
:100050000C9414040C9414040C9414040C941404C0
:100060000C9414040C941404010D011300082C01C9
:1000700000010D8011241FBECFEFD8E0DEBFCDBF41
:10008000E8E6F0E040E017C0B591A59135912591E3
:10009000059107FD0CC095918591EF01F92FE82F8F
:1000A00005900D92A217B307D9F7FE0104C01D9267
:1000B000A217B307E1F7E437F40731F70E94120300
:0800C0000C946200F894FFCFDC
:1000C8002020202020202020202020202020202028
:1000D800004E6F76200050726F200047616D6500FA
:1000E8006C766C3A0050743A200020205472793AA9
:1000F80020003130003131003132003133003134E9
:100108000031350047616E617374652070657272E5
:10011800612100506572646973746520706572723C
:100128006121005468726F772E2E2E0053686F6F0E
:100138007421004D757368726F6F6D004B696E673F
:04014800646F6D0073
:10014C001F920F920FB60F9211242F933F934F9340
:10015C005F936F937F938F939F93AF93BF93EF9323
:10016C00FF93809100018130B9F40E9486038823AB
:10017C0061F02091060125B937EE3203C00111243C
:10018C0081509F4F8093B40074C0E0E0F1E082E0B6
:10019C00808381E080876DC0823009F068C00E9446
:1001AC000204882381F1E0E0F1E083818F5F838397
:1001BC0059988FEF97EA21E6815090402040E1F763
:1001CC0000C00000599A0E94D4038823B9F0109201
:1001DC0009010E94980380E80E94E0036CE071E042
:1001EC0080E00E9434033FEF8FE493EC3150804069
:1001FC009040E1F700C000000E9455030E9450019E
:10020C000E94F80336C08091020181111DC0E0E00C
:10021C00F1E01186138211820E94980380E80E94FB
:10022C00E0036BE171E080E00E9434032FEF3FE4C8
:10023C0083EC215030408040E1F700C000000E9468
:10024C0055030E94500115C08150809302015898AB
:10025C009FEF27EA31E6915020403040E1F700C093
:10026C000000589A0E9450010E94F80302C00E949C
:10027C00F803FF91EF91BF91AF919F918F917F9177
:10028C006F915F914F913F912F910F900FBE0F90F7
:04029C001F90189502
:1002A000CF92DF92EF920F931F93CF93DF931F9222
:1002B000CDB7DEB70E94980380E80E94E0038091EA
:1002C0000C01811106C069ED70E080E00E943403EA
:1002D00005C06EED70E080E00E94340363EE70E0D4
:1002E00080E00E9434038AE80E94E00368EE70E038
:1002F00080E00E9434038FE80E94E00300E011E0F8
:10030000F8018385805D8983CE0101966C01F0E858
:10031000EF2E8E2DB6010E94340380EC0E94E00384
:100320006DEE70E080E00E943403F8018381805D0F
:1003300089838E2DB6010E94340362EF70E080E065
:100340000E943403F801828190E3980F99838A30E8
:1003500028F48E2DB6010E94340331C08C30C1F0D8
:1003600028F48A3049F08B3069F029C08E30E1F0F2
:10037000A8F08F30F9F023C06AEF70E080E00E94AF
:1003800034031DC06DEF70E080E00E94340317C09D
:1003900060E071E080E00E94340311C063E071E02E
:1003A00080E00E9434030BC066E071E080E00E94B0
:1003B000340305C069E071E080E00E9434030F90CF
:1003C000DF91CF911F910F91EF90DF90CF90089523
:1003D0001F920F920FB60F9211242F933F934F93BA
:1003E0005F936F937F938F939F93AF93BF93EF939D
:1003F000FF930E947303811112C0E0E0F1E01682C6
:1004000081E080830E94980380E80E94E0036BE211
:1004100071E080E00E9434030E94C70314C0813061
:1004200071F482E08093000180EC0E94E00364E3B9
:1004300071E080E00E9434031092B10004C0823069
:1004400011F4109200012FEF83EC99E021508040CD
:100450009040E1F700C00000FF91EF91BF91AF9194
:100460009F918F917F916F915F914F913F912F91CC
:0A0470000F900FBE0F901F9018951B
:10047A002D9A89B1807782958F70813079F028F032
:10048A008330B1F08730F1F025C010920B0185E07E
:10049A008093890088E7809388001CC081E080935C
:1004AA000B0183E08093890080E28093880012C068
:1004BA0083E080930B0181E08093890084EF80932D
:1004CA00880008C087E080930B011092890086E9B2
:1004DA008093880089B1807890E095958795959565
:1004EA008795959587959595879580930C0108959D
:1004FA00EF92FF920F931F93CF93DF9300D000D018
:10050A0000D0CDB7DEB786E0EDE0F1E0DE0111966E
:10051A0001900D928A95E1F78FE39FE10197F1F738
:10052A0000C000008E010F5F1F4F7E0197E0E90EA9
:10053A00F11CF80181918F010E94E0030E151F053D
:10054A00C1F726960FB6F894DEBF0FBECDBFDF9176
:0C055A00CF911F910F91FF90EF9008953A
:100566008BE08AB987EF8BB98FEF84B915B887B15D
:100576008F6087B987B1806387B988B188B988B138
:1005860088B9E9E6F0E080818083E89A84E0809388
:10059600680080EF80936D000E94A9030E94C70344
:1005A6007894E0E0F1E088E08483138614868AE09C
:1005B600858310861186168287830E9455030895C7
:1005C6001F920F920FB60F9211242F933F934F93C2
:1005D6005F936F937F938F939F93AF93BF93EF93A5
:1005E600FF930E9455030E9450012FEF83EC99E080
:1005F600215080409040E1F700C00000FF91EF914C
:10060600BF91AF919F918F917F916F915F914F9124
:0E0616003F912F910F900FBE0F901F901895DF
:100624000E94B3020E947D0280E80E94E0036BE313
:1006340071E080E00E94340381EC0E94E00364E4F2
:1006440071E080E00E9434032FEF87EA91E62150A5
:1006540080409040E1F700C000000E9498030E948F
:040664005001FFCF73
:10066800CF92DF92EF926B01E82EFB018491E7FCB9
:100678008081882391F00E94EC038FEFC81AD80A72
:10068800E80A8FE79EE30197F1F700C00000F60142
:100698008491E7FC80818111EECFEF90DF90CF90BD
:0206A8000895B3
:1006AA00CF93DF93C0E0D1E019860E943D028C858A
:1006BA00811105C09D8189E1891B8A8306C0E0E01A
:1006CA00F1E095818BE0891B8283E0E0F1E01382FF
:0C06DA0011820E94F803DF91CF91089577
:1006E60080910901813069F480910801823021F0FE
:1006F6008F5F8093080102C0109208018091080163
:06070600089584E008954F
:10070C00E0E0F1E02681422F50E0878190E00197F4
:10071C00481759072CF42F5F2093060181E00895A8
:04072C0080E00895CC
:1007300080E80E94E00368EC70E080E00E943403EF
:1007400080EC0E94E00368EC70E080E00E943403DB
:0207500008950A
:10075200109280008DE08093810082E080936F0090
:0E07620085E08093890088E7809388000895E1
:10077000459A8FE39FE10197F1F700C0000045988B
:0E0780008FE39FE10197F1F700C0000008959C
:10078E0082E18093B00081E08093B10084E0809399
:0A079E0070008FEF8093B4000895FF
:1007A800E0E0F1E093818581981304C081E08093B3
:0807B8000101089580E008959D
:1007C000CF93C82F82958F700E940A048C2F8F7050
:0807D0000E940A04CF91089574
:1007D800CF93C82F82958F700E940F048C2F8F7033
:0807E8000E940F04CF91089557
:1007F000E0E0F1E0108282E0808781E0818716826C
:0408000015B808958A
:10080400E0E0F1E081E026819481291380E00895FD
:0A08140088B944980E94B8030895C3
:0A081E0088B9449A0E94B8030895B7
:040828000C9400002C
:06082C00010228060C8009
:00000001FF
